{
  "address": "0xdc66B8EA8e71786c94fDd8B45e2C6CEE20bCC7E1",
  "abi": [
    {
      "inputs": [],
      "stateMutability": "nonpayable",
      "type": "constructor"
    },
    {
      "inputs": [
        {
          "internalType": "string",
          "name": "contentID",
          "type": "string"
        }
      ],
      "name": "AlreadyArchived",
      "type": "error"
    },
    {
      "anonymous": false,
      "inputs": [
        {
          "indexed": false,
          "internalType": "string",
          "name": "contentID",
          "type": "string"
        },
        {
          "indexed": false,
          "internalType": "string",
          "name": "contentURL",
          "type": "string"
        },
        {
          "indexed": false,
          "internalType": "string",
          "name": "title",
          "type": "string"
        }
      ],
      "name": "ArchiveAdded",
      "type": "event"
    },
    {
      "inputs": [
        {
          "internalType": "string",
          "name": "contentID",
          "type": "string"
        },
        {
          "internalType": "string",
          "name": "contentURL",
          "type": "string"
        },
        {
          "internalType": "string",
          "name": "title",
          "type": "string"
        }
      ],
      "name": "addArchive",
      "outputs": [],
      "stateMutability": "nonpayable",
      "type": "function"
    },
    {
      "inputs": [
        {
          "internalType": "string",
          "name": "",
          "type": "string"
        }
      ],
      "name": "archiveAdded",
      "outputs": [
        {
          "internalType": "bool",
          "name": "",
          "type": "bool"
        }
      ],
      "stateMutability": "view",
      "type": "function"
    }
  ],
  "transactionHash": "0xfc1aea3abfb2dfd8457a2ef1487aad82902439def63d4c228eadbe188c51f136",
  "args": [],
  "numDeployments": 5,
  "solcInputHash": "8e9f113100038a8f0b789de9a063a09b",
  "bytecode": "0x608060405234801561001057600080fd5b506103dc806100206000396000f3fe608060405234801561001057600080fd5b50600436106100365760003560e01c80638397ef2f1461003b578063cc82cf8714610050575b600080fd5b61004e6100493660046101a7565b610092565b005b61007e61005e366004610257565b805160208183018101805160008252928201919093012091525460ff1681565b604051901515815260200160405180910390f35b600086866040516100a4929190610308565b9081526040519081900360200190205460ff16156100e257858560405163f559f28f60e01b81526004016100d9929190610341565b60405180910390fd5b6001600087876040516100f6929190610308565b908152604051908190036020018120805492151560ff19909316929092179091557f4c73c9d4adf4c6421c217e2f96d405f1056142fe715a2f7fe3e90214008b80589061014e9088908890889088908890889061035d565b60405180910390a1505050505050565b60008083601f84011261017057600080fd5b50813567ffffffffffffffff81111561018857600080fd5b6020830191508360208285010111156101a057600080fd5b9250929050565b600080600080600080606087890312156101c057600080fd5b863567ffffffffffffffff808211156101d857600080fd5b6101e48a838b0161015e565b909850965060208901359150808211156101fd57600080fd5b6102098a838b0161015e565b9096509450604089013591508082111561022257600080fd5b5061022f89828a0161015e565b979a9699509497509295939492505050565b634e487b7160e01b600052604160045260246000fd5b60006020828403121561026957600080fd5b813567ffffffffffffffff8082111561028157600080fd5b818401915084601f83011261029557600080fd5b8135818111156102a7576102a7610241565b604051601f8201601f19908116603f011681019083821181831017156102cf576102cf610241565b816040528281528760208487010111156102e857600080fd5b826020860160208301376000928101602001929092525095945050505050565b8183823760009101908152919050565b81835281816020850137506000828201602090810191909152601f909101601f19169091010190565b602081526000610355602083018486610318565b949350505050565b60608152600061037160608301888a610318565b8281036020840152610384818789610318565b90508281036040840152610399818587610318565b999850505050505050505056fea264697066735822122081744f5ae3ac8d2be0d3130d3f4388d1ada31b0dac66daefefdaa1ce796ecc8064736f6c634300080a0033",
  "devdoc": {
    "kind": "dev",
    "methods": {},
    "version": 1
  },
  "userdoc": {
    "kind": "user",
    "methods": {},
    "version": 1
  },
  "storageLayout": {
    "storage": [
      {
        "astId": 17,
        "contract": "contracts/DArchive.sol:DArchive",
        "label": "archiveAdded",
        "offset": 0,
        "slot": "0",
        "type": "t_mapping(t_string_memory_ptr,t_bool)"
      }
    ],
    "types": {
      "t_bool": {
        "encoding": "inplace",
        "label": "bool",
        "numberOfBytes": "1"
      },
      "t_mapping(t_string_memory_ptr,t_bool)": {
        "encoding": "mapping",
        "key": "t_string_memory_ptr",
        "label": "mapping(string => bool)",
        "numberOfBytes": "32",
        "value": "t_bool"
      },
      "t_string_memory_ptr": {
        "encoding": "bytes",
        "label": "string",
        "numberOfBytes": "32"
      }
    }
  }
}