{
  "address": "0x791056f7EfF8f2a235b6cb7041e53C8BC9a8BFF0",
  "abi": [
    {
      "inputs": [
        {
          "internalType": "address",
          "name": "_trustedForwarder",
          "type": "address"
        },
        {
          "internalType": "address",
          "name": "supporterNFTAddress",
          "type": "address"
        }
      ],
      "stateMutability": "nonpayable",
      "type": "constructor"
    },
    {
      "inputs": [
        {
          "internalType": "string",
          "name": "contentID",
          "type": "string"
        }
      ],
      "name": "AlreadyArchived",
      "type": "error"
    },
    {
      "anonymous": false,
      "inputs": [
        {
          "indexed": false,
          "internalType": "string",
          "name": "contentID",
          "type": "string"
        },
        {
          "indexed": false,
          "internalType": "string",
          "name": "contentURL",
          "type": "string"
        },
        {
          "indexed": false,
          "internalType": "string",
          "name": "title",
          "type": "string"
        }
      ],
      "name": "ArchiveAdded",
      "type": "event"
    },
    {
      "anonymous": false,
      "inputs": [
        {
          "indexed": true,
          "internalType": "address",
          "name": "previousOwner",
          "type": "address"
        },
        {
          "indexed": true,
          "internalType": "address",
          "name": "newOwner",
          "type": "address"
        }
      ],
      "name": "OwnershipTransferred",
      "type": "event"
    },
    {
      "inputs": [
        {
          "internalType": "string",
          "name": "contentID",
          "type": "string"
        },
        {
          "internalType": "string",
          "name": "contentURL",
          "type": "string"
        },
        {
          "internalType": "string",
          "name": "title",
          "type": "string"
        }
      ],
      "name": "addArchive",
      "outputs": [],
      "stateMutability": "nonpayable",
      "type": "function"
    },
    {
      "inputs": [
        {
          "internalType": "string",
          "name": "",
          "type": "string"
        }
      ],
      "name": "archiveAdded",
      "outputs": [
        {
          "internalType": "bool",
          "name": "",
          "type": "bool"
        }
      ],
      "stateMutability": "view",
      "type": "function"
    },
    {
      "inputs": [],
      "name": "getTrustedForwarder",
      "outputs": [
        {
          "internalType": "address",
          "name": "forwarder",
          "type": "address"
        }
      ],
      "stateMutability": "view",
      "type": "function"
    },
    {
      "inputs": [
        {
          "internalType": "address",
          "name": "forwarder",
          "type": "address"
        }
      ],
      "name": "isTrustedForwarder",
      "outputs": [
        {
          "internalType": "bool",
          "name": "",
          "type": "bool"
        }
      ],
      "stateMutability": "view",
      "type": "function"
    },
    {
      "inputs": [],
      "name": "owner",
      "outputs": [
        {
          "internalType": "address",
          "name": "",
          "type": "address"
        }
      ],
      "stateMutability": "view",
      "type": "function"
    },
    {
      "inputs": [],
      "name": "renounceOwnership",
      "outputs": [],
      "stateMutability": "nonpayable",
      "type": "function"
    },
    {
      "inputs": [
        {
          "internalType": "uint256",
          "name": "tokenId",
          "type": "uint256"
        }
      ],
      "name": "revoke",
      "outputs": [],
      "stateMutability": "nonpayable",
      "type": "function"
    },
    {
      "inputs": [
        {
          "internalType": "string",
          "name": "uri",
          "type": "string"
        }
      ],
      "name": "setSupporterTokenURI",
      "outputs": [],
      "stateMutability": "nonpayable",
      "type": "function"
    },
    {
      "inputs": [
        {
          "internalType": "address",
          "name": "_trustedForwarder",
          "type": "address"
        }
      ],
      "name": "setTrustedForwarder",
      "outputs": [],
      "stateMutability": "nonpayable",
      "type": "function"
    },
    {
      "inputs": [],
      "name": "support",
      "outputs": [],
      "stateMutability": "payable",
      "type": "function"
    },
    {
      "inputs": [],
      "name": "supporterNFT",
      "outputs": [
        {
          "internalType": "contract ISupporterNFT",
          "name": "",
          "type": "address"
        }
      ],
      "stateMutability": "view",
      "type": "function"
    },
    {
      "inputs": [
        {
          "internalType": "address",
          "name": "newOwner",
          "type": "address"
        }
      ],
      "name": "transferOwnership",
      "outputs": [],
      "stateMutability": "nonpayable",
      "type": "function"
    },
    {
      "inputs": [],
      "name": "versionRecipient",
      "outputs": [
        {
          "internalType": "string",
          "name": "",
          "type": "string"
        }
      ],
      "stateMutability": "pure",
      "type": "function"
    },
    {
      "inputs": [
        {
          "internalType": "uint256",
          "name": "amount",
          "type": "uint256"
        }
      ],
      "name": "withdraw",
      "outputs": [],
      "stateMutability": "nonpayable",
      "type": "function"
    },
    {
      "stateMutability": "payable",
      "type": "receive"
    }
  ],
  "transactionHash": "0x3fe6b74810281789ce21bac961947c1f8d83767f6ad7010a50062ba95e1ffba2",
  "args": [
    "0x9399BB24DBB5C4b782C70c2969F58716Ebbd6a3b",
    "0x2670c144A0b1AA120d6FbCFa2A086c14BFab5396"
  ],
  "numDeployments": 1,
  "solcInputHash": "135826fb3f145e9e9f72365ecdaa6e41",
  "bytecode": "0x608060405234801561001057600080fd5b50604051610c1d380380610c1d83398101604081905261002f9161012b565b61003f61003a610070565b610089565b600080546001600160a01b039384166001600160a01b0319918216179091556003805492909316911617905561015e565b60006100846100db60201b61066d1760201c565b905090565b600180546001600160a01b038381166001600160a01b0319831681179093556040519116919082907f8be0079c531659141344cd1fd0a4f28419497f9722a3daafe3b4186f6b6457e090600090a35050565b6000601436108015906100f857506000546001600160a01b031633145b1561010a575060131936013560601c90565b503390565b80516001600160a01b038116811461012657600080fd5b919050565b6000806040838503121561013e57600080fd5b6101478361010f565b91506101556020840161010f565b90509250929050565b610ab08061016d6000396000f3fe6080604052600436106100e15760003560e01c80638397ef2f1161007f578063ce1b815f11610059578063ce1b815f1461027c578063da7422281461029a578063f2fde38b146102ba578063f31fecc9146102da57600080fd5b80638397ef2f146101ef5780638da5cb5b1461020f578063cc82cf871461024157600080fd5b8063486ff0cd116100bb578063486ff0cd1461013e5780634b6a0c311461017b578063572b6c051461019b578063715018a6146101da57600080fd5b8063119f8747146100f657806320c5429b146100fe5780632e1a7d4d1461011e57600080fd5b366100f1576100ef336102fa565b005b600080fd5b6100ef6103d0565b34801561010a57600080fd5b506100ef61011936600461077b565b6103db565b34801561012a57600080fd5b506100ef61013936600461077b565b610414565b34801561014a57600080fd5b5060408051808201825260058152640322e322e360dc1b602082015290516101729190610794565b60405180910390f35b34801561018757600080fd5b506100ef6101963660046107ff565b6104c4565b3480156101a757600080fd5b506101ca6101b63660046108b0565b6000546001600160a01b0391821691161490565b6040519015158152602001610172565b3480156101e657600080fd5b506100ef6104fc565b3480156101fb57600080fd5b506100ef61020a366004610929565b61050e565b34801561021b57600080fd5b506001546001600160a01b03165b6040516001600160a01b039091168152602001610172565b34801561024d57600080fd5b506101ca61025c3660046107ff565b805160208183018101805160028252928201919093012091525460ff1681565b34801561028857600080fd5b506000546001600160a01b0316610229565b3480156102a657600080fd5b506100ef6102b53660046108b0565b6105d1565b3480156102c657600080fd5b506100ef6102d53660046108b0565b6105f7565b3480156102e657600080fd5b50600354610229906001600160a01b031681565b6003546040516370a0823160e01b81526001600160a01b038381166004830152909116906370a0823190602401602060405180830381865afa158015610344573d6000803e3d6000fd5b505050506040513d601f19601f8201168201806040525081019061036891906109c3565b6103cd576003546040516340d097c360e01b81526001600160a01b038381166004830152909116906340d097c3906024015b600060405180830381600087803b1580156103b457600080fd5b505af11580156103c8573d6000803e3d6000fd5b505050505b50565b6103d9336102fa565b565b6103e36106a1565b6003546040516320c5429b60e01b8152600481018390526001600160a01b03909116906320c5429b9060240161039a565b61041c6106a1565b8047106103cd57604051600090339083908381818185875af1925050503d8060008114610465576040519150601f19603f3d011682016040523d82523d6000602084013e61046a565b606091505b50509050806104c05760405162461bcd60e51b815260206004820152601860248201527f4661696c656420746f207769746864726177204d41544943000000000000000060448201526064015b60405180910390fd5b5050565b6104cc6106a1565b600354604051634b6a0c3160e01b81526001600160a01b0390911690634b6a0c319061039a908490600401610794565b6105046106a1565b6103d9600061071a565b600286866040516105209291906109dc565b9081526040519081900360200190205460ff161561055557858560405163f559f28f60e01b81526004016104b7929190610a15565b6001600287876040516105699291906109dc565b908152604051908190036020018120805492151560ff19909316929092179091557f4c73c9d4adf4c6421c217e2f96d405f1056142fe715a2f7fe3e90214008b8058906105c190889088908890889088908890610a31565b60405180910390a1505050505050565b6105d96106a1565b600080546001600160a01b0319166001600160a01b03831617905550565b6105ff6106a1565b6001600160a01b0381166106645760405162461bcd60e51b815260206004820152602660248201527f4f776e61626c653a206e6577206f776e657220697320746865207a65726f206160448201526564647265737360d01b60648201526084016104b7565b6103cd8161071a565b60006014361080159061068a57506000546001600160a01b031633145b1561069c575060131936013560601c90565b503390565b6106a961076c565b6001600160a01b03166106c46001546001600160a01b031690565b6001600160a01b0316146103d95760405162461bcd60e51b815260206004820181905260248201527f4f776e61626c653a2063616c6c6572206973206e6f7420746865206f776e657260448201526064016104b7565b600180546001600160a01b038381166001600160a01b0319831681179093556040519116919082907f8be0079c531659141344cd1fd0a4f28419497f9722a3daafe3b4186f6b6457e090600090a35050565b600061077661066d565b905090565b60006020828403121561078d57600080fd5b5035919050565b600060208083528351808285015260005b818110156107c1578581018301518582016040015282016107a5565b818111156107d3576000604083870101525b50601f01601f1916929092016040019392505050565b634e487b7160e01b600052604160045260246000fd5b60006020828403121561081157600080fd5b813567ffffffffffffffff8082111561082957600080fd5b818401915084601f83011261083d57600080fd5b81358181111561084f5761084f6107e9565b604051601f8201601f19908116603f01168101908382118183101715610877576108776107e9565b8160405282815287602084870101111561089057600080fd5b826020860160208301376000928101602001929092525095945050505050565b6000602082840312156108c257600080fd5b81356001600160a01b03811681146108d957600080fd5b9392505050565b60008083601f8401126108f257600080fd5b50813567ffffffffffffffff81111561090a57600080fd5b60208301915083602082850101111561092257600080fd5b9250929050565b6000806000806000806060878903121561094257600080fd5b863567ffffffffffffffff8082111561095a57600080fd5b6109668a838b016108e0565b9098509650602089013591508082111561097f57600080fd5b61098b8a838b016108e0565b909650945060408901359150808211156109a457600080fd5b506109b189828a016108e0565b979a9699509497509295939492505050565b6000602082840312156109d557600080fd5b5051919050565b8183823760009101908152919050565b81835281816020850137506000828201602090810191909152601f909101601f19169091010190565b602081526000610a296020830184866109ec565b949350505050565b606081526000610a4560608301888a6109ec565b8281036020840152610a588187896109ec565b90508281036040840152610a6d8185876109ec565b999850505050505050505056fea2646970667358221220670f23ffc43fd55cd22b39c4906648a1857ca5cdc413cd13a48475d76e74c96d64736f6c634300080a0033",
  "devdoc": {
    "kind": "dev",
    "methods": {
      "getTrustedForwarder()": {
        "returns": {
          "forwarder": "The address of the Forwarder contract that is being used."
        }
      },
      "isTrustedForwarder(address)": {
        "params": {
          "forwarder": "The address of the Forwarder contract that is being used."
        },
        "returns": {
          "_0": "isTrustedForwarder `true` if the Forwarder is trusted to forward relayed transactions by this Recipient."
        }
      },
      "owner()": {
        "details": "Returns the address of the current owner."
      },
      "renounceOwnership()": {
        "details": "Leaves the contract without owner. It will not be possible to call `onlyOwner` functions anymore. Can only be called by the current owner. NOTE: Renouncing ownership will leave the contract without an owner, thereby removing any functionality that is only available to the owner."
      },
      "transferOwnership(address)": {
        "details": "Transfers ownership of the contract to a new account (`newOwner`). Can only be called by the current owner."
      }
    },
    "version": 1
  },
  "userdoc": {
    "kind": "user",
    "methods": {
      "getTrustedForwarder()": {
        "notice": ":warning: **Warning** :warning: The Forwarder can have a full control over your Recipient. Only trust verified Forwarder.Method is not a required method to allow Recipients to trust multiple Forwarders. Not recommended yet."
      },
      "isTrustedForwarder(address)": {
        "notice": ":warning: **Warning** :warning: The Forwarder can have a full control over your Recipient. Only trust verified Forwarder."
      }
    },
    "version": 1
  },
  "storageLayout": {
    "storage": [
      {
        "astId": 7,
        "contract": "contracts/DArchive.sol:DArchive",
        "label": "_trustedForwarder",
        "offset": 0,
        "slot": "0",
        "type": "t_address"
      },
      {
        "astId": 134,
        "contract": "contracts/DArchive.sol:DArchive",
        "label": "_owner",
        "offset": 0,
        "slot": "1",
        "type": "t_address"
      },
      {
        "astId": 2097,
        "contract": "contracts/DArchive.sol:DArchive",
        "label": "archiveAdded",
        "offset": 0,
        "slot": "2",
        "type": "t_mapping(t_string_memory_ptr,t_bool)"
      },
      {
        "astId": 2100,
        "contract": "contracts/DArchive.sol:DArchive",
        "label": "supporterNFT",
        "offset": 0,
        "slot": "3",
        "type": "t_contract(ISupporterNFT)2077"
      }
    ],
    "types": {
      "t_address": {
        "encoding": "inplace",
        "label": "address",
        "numberOfBytes": "20"
      },
      "t_bool": {
        "encoding": "inplace",
        "label": "bool",
        "numberOfBytes": "1"
      },
      "t_contract(ISupporterNFT)2077": {
        "encoding": "inplace",
        "label": "contract ISupporterNFT",
        "numberOfBytes": "20"
      },
      "t_mapping(t_string_memory_ptr,t_bool)": {
        "encoding": "mapping",
        "key": "t_string_memory_ptr",
        "label": "mapping(string => bool)",
        "numberOfBytes": "32",
        "value": "t_bool"
      },
      "t_string_memory_ptr": {
        "encoding": "bytes",
        "label": "string",
        "numberOfBytes": "32"
      }
    }
  }
}