{
  "address": "0x141b789644dF3D4f9408bbF559f2b60e0CB82b2e",
  "abi": [
    {
      "inputs": [],
      "stateMutability": "nonpayable",
      "type": "constructor"
    },
    {
      "inputs": [
        {
          "internalType": "string",
          "name": "contentID",
          "type": "string"
        }
      ],
      "name": "AlreadyArchived",
      "type": "error"
    },
    {
      "anonymous": false,
      "inputs": [
        {
          "indexed": false,
          "internalType": "string",
          "name": "contentID",
          "type": "string"
        }
      ],
      "name": "ArchiveAdded",
      "type": "event"
    },
    {
      "inputs": [
        {
          "internalType": "string",
          "name": "contentID",
          "type": "string"
        }
      ],
      "name": "addArchive",
      "outputs": [],
      "stateMutability": "nonpayable",
      "type": "function"
    },
    {
      "inputs": [
        {
          "internalType": "string",
          "name": "",
          "type": "string"
        }
      ],
      "name": "archiveAdded",
      "outputs": [
        {
          "internalType": "bool",
          "name": "",
          "type": "bool"
        }
      ],
      "stateMutability": "view",
      "type": "function"
    }
  ],
  "transactionHash": "0x07fcad4d2dfe4c02290b36b283e5fe167a817f9eae072bff2267dd6aed4371c0",
  "args": [],
  "numDeployments": 6,
  "solcInputHash": "56f6cbccd0d905cf9bcb6d2637c834ac",
  "bytecode": "0x608060405234801561001057600080fd5b50610300806100206000396000f3fe608060405234801561001057600080fd5b50600436106100365760003560e01c8063cc82cf871461003b578063db6398c61461007d575b600080fd5b610069610049366004610168565b805160208183018101805160008252928201919093012091525460ff1681565b604051901515815260200160405180910390f35b61009061008b366004610219565b610092565b005b600082826040516100a492919061028b565b9081526040519081900360200190205460ff16156100e257818160405163f559f28f60e01b81526004016100d992919061029b565b60405180910390fd5b6001600083836040516100f692919061028b565b908152604051908190036020018120805492151560ff19909316929092179091557f376ebb7b46b0a9d054010a577effbc5f0465a50e29441074c44bfd8b8aaa553090610146908490849061029b565b60405180910390a15050565b634e487b7160e01b600052604160045260246000fd5b60006020828403121561017a57600080fd5b813567ffffffffffffffff8082111561019257600080fd5b818401915084601f8301126101a657600080fd5b8135818111156101b8576101b8610152565b604051601f8201601f19908116603f011681019083821181831017156101e0576101e0610152565b816040528281528760208487010111156101f957600080fd5b826020860160208301376000928101602001929092525095945050505050565b6000806020838503121561022c57600080fd5b823567ffffffffffffffff8082111561024457600080fd5b818501915085601f83011261025857600080fd5b81358181111561026757600080fd5b86602082850101111561027957600080fd5b60209290920196919550909350505050565b8183823760009101908152919050565b60208152816020820152818360408301376000818301604090810191909152601f909201601f1916010191905056fea2646970667358221220982ae80a5b2798684fd0d840999d510e3de981686bb89721d1c4a4de2136a8d664736f6c634300080a0033",
  "devdoc": {
    "kind": "dev",
    "methods": {},
    "version": 1
  },
  "userdoc": {
    "kind": "user",
    "methods": {},
    "version": 1
  },
  "storageLayout": {
    "storage": [
      {
        "astId": 13,
        "contract": "contracts/DArchive.sol:DArchive",
        "label": "archiveAdded",
        "offset": 0,
        "slot": "0",
        "type": "t_mapping(t_string_memory_ptr,t_bool)"
      }
    ],
    "types": {
      "t_bool": {
        "encoding": "inplace",
        "label": "bool",
        "numberOfBytes": "1"
      },
      "t_mapping(t_string_memory_ptr,t_bool)": {
        "encoding": "mapping",
        "key": "t_string_memory_ptr",
        "label": "mapping(string => bool)",
        "numberOfBytes": "32",
        "value": "t_bool"
      },
      "t_string_memory_ptr": {
        "encoding": "bytes",
        "label": "string",
        "numberOfBytes": "32"
      }
    }
  }
}