{
  "address": "0x0370E44b6B3b4B22BC5deC4053FCb82aD1591BE5",
  "abi": [
    {
      "inputs": [
        {
          "internalType": "address",
          "name": "_trustedForwarder",
          "type": "address"
        }
      ],
      "stateMutability": "nonpayable",
      "type": "constructor"
    },
    {
      "inputs": [
        {
          "internalType": "string",
          "name": "contentID",
          "type": "string"
        }
      ],
      "name": "AlreadyArchived",
      "type": "error"
    },
    {
      "anonymous": false,
      "inputs": [
        {
          "indexed": false,
          "internalType": "string",
          "name": "contentID",
          "type": "string"
        }
      ],
      "name": "ArchiveAdded",
      "type": "event"
    },
    {
      "anonymous": false,
      "inputs": [
        {
          "indexed": true,
          "internalType": "address",
          "name": "previousOwner",
          "type": "address"
        },
        {
          "indexed": true,
          "internalType": "address",
          "name": "newOwner",
          "type": "address"
        }
      ],
      "name": "OwnershipTransferred",
      "type": "event"
    },
    {
      "inputs": [
        {
          "internalType": "string",
          "name": "contentID",
          "type": "string"
        }
      ],
      "name": "addArchive",
      "outputs": [],
      "stateMutability": "nonpayable",
      "type": "function"
    },
    {
      "inputs": [
        {
          "internalType": "string",
          "name": "",
          "type": "string"
        }
      ],
      "name": "archiveAdded",
      "outputs": [
        {
          "internalType": "bool",
          "name": "",
          "type": "bool"
        }
      ],
      "stateMutability": "view",
      "type": "function"
    },
    {
      "inputs": [],
      "name": "getTrustedForwarder",
      "outputs": [
        {
          "internalType": "address",
          "name": "forwarder",
          "type": "address"
        }
      ],
      "stateMutability": "view",
      "type": "function"
    },
    {
      "inputs": [
        {
          "internalType": "address",
          "name": "forwarder",
          "type": "address"
        }
      ],
      "name": "isTrustedForwarder",
      "outputs": [
        {
          "internalType": "bool",
          "name": "",
          "type": "bool"
        }
      ],
      "stateMutability": "view",
      "type": "function"
    },
    {
      "inputs": [],
      "name": "owner",
      "outputs": [
        {
          "internalType": "address",
          "name": "",
          "type": "address"
        }
      ],
      "stateMutability": "view",
      "type": "function"
    },
    {
      "inputs": [],
      "name": "renounceOwnership",
      "outputs": [],
      "stateMutability": "nonpayable",
      "type": "function"
    },
    {
      "inputs": [
        {
          "internalType": "address",
          "name": "_trustedForwarder",
          "type": "address"
        }
      ],
      "name": "setTrustedForwarder",
      "outputs": [],
      "stateMutability": "nonpayable",
      "type": "function"
    },
    {
      "inputs": [
        {
          "internalType": "address",
          "name": "newOwner",
          "type": "address"
        }
      ],
      "name": "transferOwnership",
      "outputs": [],
      "stateMutability": "nonpayable",
      "type": "function"
    },
    {
      "inputs": [],
      "name": "versionRecipient",
      "outputs": [
        {
          "internalType": "string",
          "name": "",
          "type": "string"
        }
      ],
      "stateMutability": "pure",
      "type": "function"
    }
  ],
  "transactionHash": "0xe95f85efed00c3ce4039926ab0288f6efd79fa052d2632af5db80e5467627681",
  "args": [
    "0x9399BB24DBB5C4b782C70c2969F58716Ebbd6a3b"
  ],
  "numDeployments": 7,
  "solcInputHash": "4b68c2de28f8a2e4170791ba065f2ea4",
  "bytecode": "0x608060405234801561001057600080fd5b5060405161079338038061079383398101604081905261002f916100ff565b61003f61003a610060565b610079565b600080546001600160a01b0319166001600160a01b0383161790555061012f565b60006100746100cb60201b6103141760201c565b905090565b600180546001600160a01b038381166001600160a01b0319831681179093556040519116919082907f8be0079c531659141344cd1fd0a4f28419497f9722a3daafe3b4186f6b6457e090600090a35050565b6000601436108015906100e857506000546001600160a01b031633145b156100fa575060131936013560601c90565b503390565b60006020828403121561011157600080fd5b81516001600160a01b038116811461012857600080fd5b9392505050565b6106558061013e6000396000f3fe608060405234801561001057600080fd5b50600436106100935760003560e01c8063cc82cf8711610066578063cc82cf8714610129578063ce1b815f14610157578063da74222814610168578063db6398c61461017b578063f2fde38b1461018e57600080fd5b8063486ff0cd14610098578063572b6c05146100c8578063715018a6146100fa5780638da5cb5b14610104575b600080fd5b60408051808201825260058152640322e322e360dc1b602082015290516100bf9190610422565b60405180910390f35b6100ea6100d6366004610477565b6000546001600160a01b0391821691161490565b60405190151581526020016100bf565b6101026101a1565b005b6001546001600160a01b03165b6040516001600160a01b0390911681526020016100bf565b6100ea6101373660046104bd565b805160208183018101805160028252928201919093012091525460ff1681565b6000546001600160a01b0316610111565b610102610176366004610477565b6101b5565b61010261018936600461056e565b6101de565b61010261019c366004610477565b61029e565b6101a9610348565b6101b360006103c1565b565b6101bd610348565b600080546001600160a01b0319166001600160a01b03831617905550565b50565b600282826040516101f09291906105e0565b9081526040519081900360200190205460ff161561022e57818160405163f559f28f60e01b81526004016102259291906105f0565b60405180910390fd5b6001600283836040516102429291906105e0565b908152604051908190036020018120805492151560ff19909316929092179091557f376ebb7b46b0a9d054010a577effbc5f0465a50e29441074c44bfd8b8aaa55309061029290849084906105f0565b60405180910390a15050565b6102a6610348565b6001600160a01b03811661030b5760405162461bcd60e51b815260206004820152602660248201527f4f776e61626c653a206e6577206f776e657220697320746865207a65726f206160448201526564647265737360d01b6064820152608401610225565b6101db816103c1565b60006014361080159061033157506000546001600160a01b031633145b15610343575060131936013560601c90565b503390565b610350610413565b6001600160a01b031661036b6001546001600160a01b031690565b6001600160a01b0316146101b35760405162461bcd60e51b815260206004820181905260248201527f4f776e61626c653a2063616c6c6572206973206e6f7420746865206f776e65726044820152606401610225565b600180546001600160a01b038381166001600160a01b0319831681179093556040519116919082907f8be0079c531659141344cd1fd0a4f28419497f9722a3daafe3b4186f6b6457e090600090a35050565b600061041d610314565b905090565b600060208083528351808285015260005b8181101561044f57858101830151858201604001528201610433565b81811115610461576000604083870101525b50601f01601f1916929092016040019392505050565b60006020828403121561048957600080fd5b81356001600160a01b03811681146104a057600080fd5b9392505050565b634e487b7160e01b600052604160045260246000fd5b6000602082840312156104cf57600080fd5b813567ffffffffffffffff808211156104e757600080fd5b818401915084601f8301126104fb57600080fd5b81358181111561050d5761050d6104a7565b604051601f8201601f19908116603f01168101908382118183101715610535576105356104a7565b8160405282815287602084870101111561054e57600080fd5b826020860160208301376000928101602001929092525095945050505050565b6000806020838503121561058157600080fd5b823567ffffffffffffffff8082111561059957600080fd5b818501915085601f8301126105ad57600080fd5b8135818111156105bc57600080fd5b8660208285010111156105ce57600080fd5b60209290920196919550909350505050565b8183823760009101908152919050565b60208152816020820152818360408301376000818301604090810191909152601f909201601f1916010191905056fea2646970667358221220630df6118578f48cd30d2149ca52777d2a4e5b7f5060f94a6d055103cc9756ca64736f6c634300080a0033",
  "devdoc": {
    "kind": "dev",
    "methods": {
      "getTrustedForwarder()": {
        "returns": {
          "forwarder": "The address of the Forwarder contract that is being used."
        }
      },
      "isTrustedForwarder(address)": {
        "params": {
          "forwarder": "The address of the Forwarder contract that is being used."
        },
        "returns": {
          "_0": "isTrustedForwarder `true` if the Forwarder is trusted to forward relayed transactions by this Recipient."
        }
      },
      "owner()": {
        "details": "Returns the address of the current owner."
      },
      "renounceOwnership()": {
        "details": "Leaves the contract without owner. It will not be possible to call `onlyOwner` functions anymore. Can only be called by the current owner. NOTE: Renouncing ownership will leave the contract without an owner, thereby removing any functionality that is only available to the owner."
      },
      "transferOwnership(address)": {
        "details": "Transfers ownership of the contract to a new account (`newOwner`). Can only be called by the current owner."
      }
    },
    "version": 1
  },
  "userdoc": {
    "kind": "user",
    "methods": {
      "getTrustedForwarder()": {
        "notice": ":warning: **Warning** :warning: The Forwarder can have a full control over your Recipient. Only trust verified Forwarder.Method is not a required method to allow Recipients to trust multiple Forwarders. Not recommended yet."
      },
      "isTrustedForwarder(address)": {
        "notice": ":warning: **Warning** :warning: The Forwarder can have a full control over your Recipient. Only trust verified Forwarder."
      }
    },
    "version": 1
  },
  "storageLayout": {
    "storage": [
      {
        "astId": 7,
        "contract": "contracts/DArchive.sol:DArchive",
        "label": "_trustedForwarder",
        "offset": 0,
        "slot": "0",
        "type": "t_address"
      },
      {
        "astId": 134,
        "contract": "contracts/DArchive.sol:DArchive",
        "label": "_owner",
        "offset": 0,
        "slot": "1",
        "type": "t_address"
      },
      {
        "astId": 281,
        "contract": "contracts/DArchive.sol:DArchive",
        "label": "archiveAdded",
        "offset": 0,
        "slot": "2",
        "type": "t_mapping(t_string_memory_ptr,t_bool)"
      }
    ],
    "types": {
      "t_address": {
        "encoding": "inplace",
        "label": "address",
        "numberOfBytes": "20"
      },
      "t_bool": {
        "encoding": "inplace",
        "label": "bool",
        "numberOfBytes": "1"
      },
      "t_mapping(t_string_memory_ptr,t_bool)": {
        "encoding": "mapping",
        "key": "t_string_memory_ptr",
        "label": "mapping(string => bool)",
        "numberOfBytes": "32",
        "value": "t_bool"
      },
      "t_string_memory_ptr": {
        "encoding": "bytes",
        "label": "string",
        "numberOfBytes": "32"
      }
    }
  }
}