{
  "address": "0xcb2c85E4216Bd207CF26464B3dDed13d738a552B",
  "abi": [
    {
      "inputs": [],
      "stateMutability": "nonpayable",
      "type": "constructor"
    },
    {
      "anonymous": false,
      "inputs": [
        {
          "indexed": false,
          "internalType": "string",
          "name": "contentID",
          "type": "string"
        },
        {
          "indexed": false,
          "internalType": "string",
          "name": "contentURI",
          "type": "string"
        },
        {
          "indexed": false,
          "internalType": "string",
          "name": "title",
          "type": "string"
        },
        {
          "indexed": false,
          "internalType": "uint256",
          "name": "timestamp",
          "type": "uint256"
        }
      ],
      "name": "ArchiveAdded",
      "type": "event"
    },
    {
      "inputs": [
        {
          "internalType": "string",
          "name": "contentID",
          "type": "string"
        },
        {
          "internalType": "string",
          "name": "contentURI",
          "type": "string"
        },
        {
          "internalType": "string",
          "name": "title",
          "type": "string"
        }
      ],
      "name": "addArchive",
      "outputs": [],
      "stateMutability": "nonpayable",
      "type": "function"
    },
    {
      "inputs": [
        {
          "internalType": "string",
          "name": "",
          "type": "string"
        }
      ],
      "name": "archiveAdded",
      "outputs": [
        {
          "internalType": "bool",
          "name": "",
          "type": "bool"
        }
      ],
      "stateMutability": "view",
      "type": "function"
    }
  ],
  "transactionHash": "0x9179c1f76483a235085e73ce0a38b1c017c8c484ab1a7d38d64026fe7ce9c008",
  "args": [],
  "numDeployments": 2,
  "solcInputHash": "44996f4c634620d09b6e1cb11185e9d8",
  "bytecode": "0x608060405234801561001057600080fd5b5061060b806100206000396000f3fe608060405234801561001057600080fd5b50600436106100365760003560e01c80638397ef2f1461003b578063cc82cf8714610057575b600080fd5b610055600480360381019061005091906101f5565b610087565b005b610071600480360381019061006c91906103ea565b610146565b60405161007e919061044e565b60405180910390f35b600015156000878760405161009d929190610499565b908152602001604051809103902060009054906101000a900460ff161515146100fb576040517f08c379a00000000000000000000000000000000000000000000000000000000081526004016100f29061050f565b60405180910390fd5b7faeb129f540c4c237ef02ad744e4af05993f0cac29e8075c012792d93583bab4a868686868686426040516101369796959493929190610575565b60405180910390a1505050505050565b6000818051602081018201805184825260208301602085012081835280955050505050506000915054906101000a900460ff1681565b6000604051905090565b600080fd5b600080fd5b600080fd5b600080fd5b600080fd5b60008083601f8401126101b5576101b4610190565b5b8235905067ffffffffffffffff8111156101d2576101d1610195565b5b6020830191508360018202830111156101ee576101ed61019a565b5b9250929050565b6000806000806000806060878903121561021257610211610186565b5b600087013567ffffffffffffffff8111156102305761022f61018b565b5b61023c89828a0161019f565b9650965050602087013567ffffffffffffffff81111561025f5761025e61018b565b5b61026b89828a0161019f565b9450945050604087013567ffffffffffffffff81111561028e5761028d61018b565b5b61029a89828a0161019f565b92509250509295509295509295565b600080fd5b6000601f19601f8301169050919050565b7f4e487b7100000000000000000000000000000000000000000000000000000000600052604160045260246000fd5b6102f7826102ae565b810181811067ffffffffffffffff82111715610316576103156102bf565b5b80604052505050565b600061032961017c565b905061033582826102ee565b919050565b600067ffffffffffffffff821115610355576103546102bf565b5b61035e826102ae565b9050602081019050919050565b82818337600083830152505050565b600061038d6103888461033a565b61031f565b9050828152602081018484840111156103a9576103a86102a9565b5b6103b484828561036b565b509392505050565b600082601f8301126103d1576103d0610190565b5b81356103e184826020860161037a565b91505092915050565b600060208284031215610400576103ff610186565b5b600082013567ffffffffffffffff81111561041e5761041d61018b565b5b61042a848285016103bc565b91505092915050565b60008115159050919050565b61044881610433565b82525050565b6000602082019050610463600083018461043f565b92915050565b600081905092915050565b60006104808385610469565b935061048d83858461036b565b82840190509392505050565b60006104a6828486610474565b91508190509392505050565b600082825260208201905092915050565b7f4172636869766520616c72656164792065786973747300000000000000000000600082015250565b60006104f96016836104b2565b9150610504826104c3565b602082019050919050565b60006020820190508181036000830152610528816104ec565b9050919050565b600061053b83856104b2565b935061054883858461036b565b610551836102ae565b840190509392505050565b6000819050919050565b61056f8161055c565b82525050565b6000608082019050818103600083015261059081898b61052f565b905081810360208301526105a581878961052f565b905081810360408301526105ba81858761052f565b90506105c96060830184610566565b9897505050505050505056fea2646970667358221220b133d5f7539df87e0c9b512c64436036c904a9a9ad4151b4779ee7be95fe377064736f6c634300080a0033",
  "devdoc": {
    "kind": "dev",
    "methods": {},
    "version": 1
  },
  "userdoc": {
    "kind": "user",
    "methods": {},
    "version": 1
  },
  "storageLayout": {
    "storage": [
      {
        "astId": 15,
        "contract": "contracts/DArchive.sol:DArchive",
        "label": "archiveAdded",
        "offset": 0,
        "slot": "0",
        "type": "t_mapping(t_string_memory_ptr,t_bool)"
      }
    ],
    "types": {
      "t_bool": {
        "encoding": "inplace",
        "label": "bool",
        "numberOfBytes": "1"
      },
      "t_mapping(t_string_memory_ptr,t_bool)": {
        "encoding": "mapping",
        "key": "t_string_memory_ptr",
        "label": "mapping(string => bool)",
        "numberOfBytes": "32",
        "value": "t_bool"
      },
      "t_string_memory_ptr": {
        "encoding": "bytes",
        "label": "string",
        "numberOfBytes": "32"
      }
    }
  }
}