{
  "address": "0x2670c144A0b1AA120d6FbCFa2A086c14BFab5396",
  "abi": [
    {
      "inputs": [],
      "stateMutability": "nonpayable",
      "type": "constructor"
    },
    {
      "anonymous": false,
      "inputs": [
        {
          "indexed": true,
          "internalType": "address",
          "name": "owner",
          "type": "address"
        },
        {
          "indexed": true,
          "internalType": "address",
          "name": "approved",
          "type": "address"
        },
        {
          "indexed": true,
          "internalType": "uint256",
          "name": "tokenId",
          "type": "uint256"
        }
      ],
      "name": "Approval",
      "type": "event"
    },
    {
      "anonymous": false,
      "inputs": [
        {
          "indexed": true,
          "internalType": "address",
          "name": "owner",
          "type": "address"
        },
        {
          "indexed": true,
          "internalType": "address",
          "name": "operator",
          "type": "address"
        },
        {
          "indexed": false,
          "internalType": "bool",
          "name": "approved",
          "type": "bool"
        }
      ],
      "name": "ApprovalForAll",
      "type": "event"
    },
    {
      "anonymous": false,
      "inputs": [
        {
          "indexed": true,
          "internalType": "address",
          "name": "to",
          "type": "address"
        },
        {
          "indexed": true,
          "internalType": "uint256",
          "name": "tokenId",
          "type": "uint256"
        }
      ],
      "name": "Attest",
      "type": "event"
    },
    {
      "anonymous": false,
      "inputs": [
        {
          "indexed": true,
          "internalType": "address",
          "name": "previousOwner",
          "type": "address"
        },
        {
          "indexed": true,
          "internalType": "address",
          "name": "newOwner",
          "type": "address"
        }
      ],
      "name": "OwnershipTransferred",
      "type": "event"
    },
    {
      "anonymous": false,
      "inputs": [
        {
          "indexed": true,
          "internalType": "address",
          "name": "to",
          "type": "address"
        },
        {
          "indexed": true,
          "internalType": "uint256",
          "name": "tokenId",
          "type": "uint256"
        }
      ],
      "name": "Revoke",
      "type": "event"
    },
    {
      "anonymous": false,
      "inputs": [
        {
          "indexed": true,
          "internalType": "address",
          "name": "from",
          "type": "address"
        },
        {
          "indexed": true,
          "internalType": "address",
          "name": "to",
          "type": "address"
        },
        {
          "indexed": true,
          "internalType": "uint256",
          "name": "tokenId",
          "type": "uint256"
        }
      ],
      "name": "Transfer",
      "type": "event"
    },
    {
      "inputs": [
        {
          "internalType": "address",
          "name": "to",
          "type": "address"
        },
        {
          "internalType": "uint256",
          "name": "tokenId",
          "type": "uint256"
        }
      ],
      "name": "approve",
      "outputs": [],
      "stateMutability": "nonpayable",
      "type": "function"
    },
    {
      "inputs": [
        {
          "internalType": "address",
          "name": "owner",
          "type": "address"
        }
      ],
      "name": "balanceOf",
      "outputs": [
        {
          "internalType": "uint256",
          "name": "",
          "type": "uint256"
        }
      ],
      "stateMutability": "view",
      "type": "function"
    },
    {
      "inputs": [
        {
          "internalType": "uint256",
          "name": "tokenId",
          "type": "uint256"
        }
      ],
      "name": "burn",
      "outputs": [],
      "stateMutability": "nonpayable",
      "type": "function"
    },
    {
      "inputs": [
        {
          "internalType": "uint256",
          "name": "tokenId",
          "type": "uint256"
        }
      ],
      "name": "getApproved",
      "outputs": [
        {
          "internalType": "address",
          "name": "",
          "type": "address"
        }
      ],
      "stateMutability": "view",
      "type": "function"
    },
    {
      "inputs": [
        {
          "internalType": "address",
          "name": "owner",
          "type": "address"
        },
        {
          "internalType": "address",
          "name": "operator",
          "type": "address"
        }
      ],
      "name": "isApprovedForAll",
      "outputs": [
        {
          "internalType": "bool",
          "name": "",
          "type": "bool"
        }
      ],
      "stateMutability": "view",
      "type": "function"
    },
    {
      "inputs": [],
      "name": "name",
      "outputs": [
        {
          "internalType": "string",
          "name": "",
          "type": "string"
        }
      ],
      "stateMutability": "view",
      "type": "function"
    },
    {
      "inputs": [],
      "name": "owner",
      "outputs": [
        {
          "internalType": "address",
          "name": "",
          "type": "address"
        }
      ],
      "stateMutability": "view",
      "type": "function"
    },
    {
      "inputs": [
        {
          "internalType": "uint256",
          "name": "tokenId",
          "type": "uint256"
        }
      ],
      "name": "ownerOf",
      "outputs": [
        {
          "internalType": "address",
          "name": "",
          "type": "address"
        }
      ],
      "stateMutability": "view",
      "type": "function"
    },
    {
      "inputs": [],
      "name": "renounceOwnership",
      "outputs": [],
      "stateMutability": "nonpayable",
      "type": "function"
    },
    {
      "inputs": [
        {
          "internalType": "uint256",
          "name": "tokenId",
          "type": "uint256"
        }
      ],
      "name": "revoke",
      "outputs": [],
      "stateMutability": "nonpayable",
      "type": "function"
    },
    {
      "inputs": [
        {
          "internalType": "address",
          "name": "to",
          "type": "address"
        }
      ],
      "name": "safeMint",
      "outputs": [],
      "stateMutability": "nonpayable",
      "type": "function"
    },
    {
      "inputs": [
        {
          "internalType": "address",
          "name": "from",
          "type": "address"
        },
        {
          "internalType": "address",
          "name": "to",
          "type": "address"
        },
        {
          "internalType": "uint256",
          "name": "tokenId",
          "type": "uint256"
        }
      ],
      "name": "safeTransferFrom",
      "outputs": [],
      "stateMutability": "nonpayable",
      "type": "function"
    },
    {
      "inputs": [
        {
          "internalType": "address",
          "name": "from",
          "type": "address"
        },
        {
          "internalType": "address",
          "name": "to",
          "type": "address"
        },
        {
          "internalType": "uint256",
          "name": "tokenId",
          "type": "uint256"
        },
        {
          "internalType": "bytes",
          "name": "data",
          "type": "bytes"
        }
      ],
      "name": "safeTransferFrom",
      "outputs": [],
      "stateMutability": "nonpayable",
      "type": "function"
    },
    {
      "inputs": [
        {
          "internalType": "address",
          "name": "operator",
          "type": "address"
        },
        {
          "internalType": "bool",
          "name": "approved",
          "type": "bool"
        }
      ],
      "name": "setApprovalForAll",
      "outputs": [],
      "stateMutability": "nonpayable",
      "type": "function"
    },
    {
      "inputs": [
        {
          "internalType": "string",
          "name": "uri",
          "type": "string"
        }
      ],
      "name": "setSupporterTokenURI",
      "outputs": [],
      "stateMutability": "nonpayable",
      "type": "function"
    },
    {
      "inputs": [],
      "name": "supporterTokenURI",
      "outputs": [
        {
          "internalType": "string",
          "name": "",
          "type": "string"
        }
      ],
      "stateMutability": "view",
      "type": "function"
    },
    {
      "inputs": [
        {
          "internalType": "bytes4",
          "name": "interfaceId",
          "type": "bytes4"
        }
      ],
      "name": "supportsInterface",
      "outputs": [
        {
          "internalType": "bool",
          "name": "",
          "type": "bool"
        }
      ],
      "stateMutability": "view",
      "type": "function"
    },
    {
      "inputs": [],
      "name": "symbol",
      "outputs": [
        {
          "internalType": "string",
          "name": "",
          "type": "string"
        }
      ],
      "stateMutability": "view",
      "type": "function"
    },
    {
      "inputs": [
        {
          "internalType": "uint256",
          "name": "tokenId",
          "type": "uint256"
        }
      ],
      "name": "tokenURI",
      "outputs": [
        {
          "internalType": "string",
          "name": "",
          "type": "string"
        }
      ],
      "stateMutability": "view",
      "type": "function"
    },
    {
      "inputs": [
        {
          "internalType": "address",
          "name": "from",
          "type": "address"
        },
        {
          "internalType": "address",
          "name": "to",
          "type": "address"
        },
        {
          "internalType": "uint256",
          "name": "tokenId",
          "type": "uint256"
        }
      ],
      "name": "transferFrom",
      "outputs": [],
      "stateMutability": "nonpayable",
      "type": "function"
    },
    {
      "inputs": [
        {
          "internalType": "address",
          "name": "newOwner",
          "type": "address"
        }
      ],
      "name": "transferOwnership",
      "outputs": [],
      "stateMutability": "nonpayable",
      "type": "function"
    }
  ],
  "transactionHash": "0x09a37157b0f5355f4d435c3de66f0e116753f9ba3f7ed37714d4095d8a88f9bf",
  "args": [],
  "numDeployments": 1,
  "solcInputHash": "135826fb3f145e9e9f72365ecdaa6e41",
  "bytecode": "0x60806040523480156200001157600080fd5b50604080518082018252601681527f644172636869766520537570706f72746572204e4654000000000000000000006020808301918252835180850190945260048452632220a9a760e11b908401528151919291620000739160009162000102565b5080516200008990600190602084019062000102565b505050620000a6620000a0620000ac60201b60201c565b620000b0565b620001e5565b3390565b600780546001600160a01b038381166001600160a01b0319831681179093556040519116919082907f8be0079c531659141344cd1fd0a4f28419497f9722a3daafe3b4186f6b6457e090600090a35050565b8280546200011090620001a8565b90600052602060002090601f0160209004810192826200013457600085556200017f565b82601f106200014f57805160ff19168380011785556200017f565b828001600101855582156200017f579182015b828111156200017f57825182559160200191906001019062000162565b506200018d92915062000191565b5090565b5b808211156200018d576000815560010162000192565b600181811c90821680620001bd57607f821691505b60208210811415620001df57634e487b7160e01b600052602260045260246000fd5b50919050565b611bdc80620001f56000396000f3fe608060405234801561001057600080fd5b50600436106101375760003560e01c80634b6a0c31116100b857806395d89b411161007c57806395d89b4114610280578063a22cb46514610288578063b88d4fde1461029b578063c87b56dd146102ae578063e985e9c5146102c1578063f2fde38b146102fd57600080fd5b80634b6a0c31146102205780636352211e1461023357806370a0823114610246578063715018a6146102675780638da5cb5b1461026f57600080fd5b806320c5429b116100ff57806320c5429b146101c157806323b872dd146101d457806340d097c3146101e757806342842e0e146101fa57806342966c681461020d57600080fd5b806301ffc9a71461013c57806306fdde0314610164578063081812fc14610179578063095ea7b3146101a45780631ae1afca146101b9575b600080fd5b61014f61014a366004611690565b610310565b60405190151581526020015b60405180910390f35b61016c610362565b60405161015b9190611705565b61018c610187366004611718565b6103f4565b6040516001600160a01b03909116815260200161015b565b6101b76101b236600461174d565b61041b565b005b61016c610536565b6101b76101cf366004611718565b6105c4565b6101b76101e2366004611777565b6105d8565b6101b76101f53660046117b3565b610609565b6101b7610208366004611777565b6106ce565b6101b761021b366004611718565b6106e9565b6101b761022e36600461185a565b610755565b61018c610241366004611718565b610770565b6102596102543660046117b3565b6107d0565b60405190815260200161015b565b6101b7610856565b6007546001600160a01b031661018c565b61016c61086a565b6101b76102963660046118a3565b610879565b6101b76102a93660046118df565b610884565b61016c6102bc366004611718565b6108bc565b61014f6102cf36600461195b565b6001600160a01b03918216600090815260056020908152604080832093909416825291909152205460ff1690565b6101b761030b3660046117b3565b6108c7565b60006001600160e01b031982166380ac58cd60e01b148061034157506001600160e01b03198216635b5e139f60e01b145b8061035c57506301ffc9a760e01b6001600160e01b03198316145b92915050565b6060600080546103719061198e565b80601f016020809104026020016040519081016040528092919081815260200182805461039d9061198e565b80156103ea5780601f106103bf576101008083540402835291602001916103ea565b820191906000526020600020905b8154815290600101906020018083116103cd57829003601f168201915b5050505050905090565b60006103ff8261093d565b506000908152600460205260409020546001600160a01b031690565b600061042682610770565b9050806001600160a01b0316836001600160a01b031614156104995760405162461bcd60e51b815260206004820152602160248201527f4552433732313a20617070726f76616c20746f2063757272656e74206f776e656044820152603960f91b60648201526084015b60405180910390fd5b336001600160a01b03821614806104b557506104b581336102cf565b6105275760405162461bcd60e51b815260206004820152603e60248201527f4552433732313a20617070726f76652063616c6c6572206973206e6f7420746f60448201527f6b656e206f776e6572206e6f7220617070726f76656420666f7220616c6c00006064820152608401610490565b610531838361099c565b505050565b600980546105439061198e565b80601f016020809104026020016040519081016040528092919081815260200182805461056f9061198e565b80156105bc5780601f10610591576101008083540402835291602001916105bc565b820191906000526020600020905b81548152906001019060200180831161059f57829003601f168201915b505050505081565b6105cc610a0a565b6105d581610a64565b50565b6105e23382610a6d565b6105fe5760405162461bcd60e51b8152600401610490906119c9565b610531838383610aec565b610611610a0a565b600061061c60085490565b905061062c600880546001019055565b6106368282610c99565b6106ca81600980546106479061198e565b80601f01602080910402602001604051908101604052809291908181526020018280546106739061198e565b80156106c05780601f10610695576101008083540402835291602001916106c0565b820191906000526020600020905b8154815290600101906020018083116106a357829003601f168201915b5050505050610cb3565b5050565b61053183838360405180602001604052806000815250610884565b336106f382610770565b6001600160a01b0316146105cc5760405162461bcd60e51b815260206004820152602360248201527f4f6e6c79206f776e6572206f662074686520746f6b656e2063616e206275726e604482015262081a5d60ea1b6064820152608401610490565b61075d610a0a565b80516106ca9060099060208401906115ab565b6000818152600260205260408120546001600160a01b03168061035c5760405162461bcd60e51b8152602060048201526018602482015277115490cdcc8c4e881a5b9d985b1a59081d1bdad95b88125160421b6044820152606401610490565b60006001600160a01b03821661083a5760405162461bcd60e51b815260206004820152602960248201527f4552433732313a2061646472657373207a65726f206973206e6f7420612076616044820152683634b21037bbb732b960b91b6064820152608401610490565b506001600160a01b031660009081526003602052604090205490565b61085e610a0a565b6108686000610d4d565b565b6060600180546103719061198e565b6106ca338383610d9f565b61088e3383610a6d565b6108aa5760405162461bcd60e51b8152600401610490906119c9565b6108b684848484610e6e565b50505050565b606061035c82610ea1565b6108cf610a0a565b6001600160a01b0381166109345760405162461bcd60e51b815260206004820152602660248201527f4f776e61626c653a206e6577206f776e657220697320746865207a65726f206160448201526564647265737360d01b6064820152608401610490565b6105d581610d4d565b6000818152600260205260409020546001600160a01b03166105d55760405162461bcd60e51b8152602060048201526018602482015277115490cdcc8c4e881a5b9d985b1a59081d1bdad95b88125160421b6044820152606401610490565b600081815260046020526040902080546001600160a01b0319166001600160a01b03841690811790915581906109d182610770565b6001600160a01b03167f8c5be1e5ebec7d5bd14f71427d1e84f3dd0314c0f7b2291e5b200ac8c7c3b92560405160405180910390a45050565b6007546001600160a01b031633146108685760405162461bcd60e51b815260206004820181905260248201527f4f776e61626c653a2063616c6c6572206973206e6f7420746865206f776e65726044820152606401610490565b6105d581610fb9565b600080610a7983610770565b9050806001600160a01b0316846001600160a01b03161480610ac057506001600160a01b0380821660009081526005602090815260408083209388168352929052205460ff165b80610ae45750836001600160a01b0316610ad9846103f4565b6001600160a01b0316145b949350505050565b826001600160a01b0316610aff82610770565b6001600160a01b031614610b635760405162461bcd60e51b815260206004820152602560248201527f4552433732313a207472616e736665722066726f6d20696e636f72726563742060448201526437bbb732b960d91b6064820152608401610490565b6001600160a01b038216610bc55760405162461bcd60e51b8152602060048201526024808201527f4552433732313a207472616e7366657220746f20746865207a65726f206164646044820152637265737360e01b6064820152608401610490565b610bd0838383610ff9565b610bdb60008261099c565b6001600160a01b0383166000908152600360205260408120805460019290610c04908490611a2d565b90915550506001600160a01b0382166000908152600360205260408120805460019290610c32908490611a44565b909155505060008181526002602052604080822080546001600160a01b0319166001600160a01b0386811691821790925591518493918716917fddf252ad1be2c89b69c2b068fc378daa952ba7f163c4a11628f55a4df523b3ef91a4610531838383611062565b6106ca8282604051806020016040528060008152506110f4565b6000828152600260205260409020546001600160a01b0316610d2e5760405162461bcd60e51b815260206004820152602e60248201527f45524337323155524953746f726167653a2055524920736574206f66206e6f6e60448201526d32bc34b9ba32b73a103a37b5b2b760911b6064820152608401610490565b60008281526006602090815260409091208251610531928401906115ab565b600780546001600160a01b038381166001600160a01b0319831681179093556040519116919082907f8be0079c531659141344cd1fd0a4f28419497f9722a3daafe3b4186f6b6457e090600090a35050565b816001600160a01b0316836001600160a01b03161415610e015760405162461bcd60e51b815260206004820152601960248201527f4552433732313a20617070726f766520746f2063616c6c6572000000000000006044820152606401610490565b6001600160a01b03838116600081815260056020908152604080832094871680845294825291829020805460ff191686151590811790915591519182527f17307eab39ab6107e8899845ad3d59bd9653f200f220920489ca2b5937696c31910160405180910390a3505050565b610e79848484610aec565b610e8584848484611127565b6108b65760405162461bcd60e51b815260040161049090611a5c565b6060610eac8261093d565b60008281526006602052604081208054610ec59061198e565b80601f0160208091040260200160405190810160405280929190818152602001828054610ef19061198e565b8015610f3e5780601f10610f1357610100808354040283529160200191610f3e565b820191906000526020600020905b815481529060010190602001808311610f2157829003601f168201915b505050505090506000610f6b604080518082019091526007815266697066733a2f2f60c81b602082015290565b9050805160001415610f7e575092915050565b815115610fb0578082604051602001610f98929190611aae565b60405160208183030381529060405292505050919050565b610ae484611225565b610fc2816112a8565b60008181526006602052604090208054610fdb9061198e565b1590506105d55760008181526006602052604081206105d59161162f565b6001600160a01b038316158061101657506001600160a01b038216155b6105315760405162461bcd60e51b815260206004820152601d60248201527f4e6f7420616c6c6f77656420746f207472616e7366657220746f6b656e0000006044820152606401610490565b6001600160a01b0383166110ab5760405181906001600160a01b038416907fe9274a84b19e9428826de6bae8c48329354f8f0e73f771b97cae2d9dccd45a2790600090a3505050565b6001600160a01b0382166105315760405181906001600160a01b038416907fec9ab91322523c899ede7830ec9bfc992b5981cdcc27b91162fb23de5791117b90600090a3505050565b6110fe8383611357565b61110b6000848484611127565b6105315760405162461bcd60e51b815260040161049090611a5c565b60006001600160a01b0384163b1561121a57604051630a85bd0160e11b81526001600160a01b0385169063150b7a029061116b903390899088908890600401611add565b6020604051808303816000875af19250505080156111a6575060408051601f3d908101601f191682019092526111a391810190611b1a565b60015b611200573d8080156111d4576040519150601f19603f3d011682016040523d82523d6000602084013e6111d9565b606091505b5080516111f85760405162461bcd60e51b815260040161049090611a5c565b805181602001fd5b6001600160e01b031916630a85bd0160e11b149050610ae4565b506001949350505050565b60606112308261093d565b6000611256604080518082019091526007815266697066733a2f2f60c81b602082015290565b9050600081511161127657604051806020016040528060008152506112a1565b80611280846114ad565b604051602001611291929190611aae565b6040516020818303038152906040525b9392505050565b60006112b382610770565b90506112c181600084610ff9565b6112cc60008361099c565b6001600160a01b03811660009081526003602052604081208054600192906112f5908490611a2d565b909155505060008281526002602052604080822080546001600160a01b0319169055518391906001600160a01b038416907fddf252ad1be2c89b69c2b068fc378daa952ba7f163c4a11628f55a4df523b3ef908390a46106ca81600084611062565b6001600160a01b0382166113ad5760405162461bcd60e51b815260206004820181905260248201527f4552433732313a206d696e7420746f20746865207a65726f20616464726573736044820152606401610490565b6000818152600260205260409020546001600160a01b0316156114125760405162461bcd60e51b815260206004820152601c60248201527f4552433732313a20746f6b656e20616c7265616479206d696e746564000000006044820152606401610490565b61141e60008383610ff9565b6001600160a01b0382166000908152600360205260408120805460019290611447908490611a44565b909155505060008181526002602052604080822080546001600160a01b0319166001600160a01b03861690811790915590518392907fddf252ad1be2c89b69c2b068fc378daa952ba7f163c4a11628f55a4df523b3ef908290a46106ca60008383611062565b6060816114d15750506040805180820190915260018152600360fc1b602082015290565b8160005b81156114fb57806114e581611b37565b91506114f49050600a83611b68565b91506114d5565b60008167ffffffffffffffff811115611516576115166117ce565b6040519080825280601f01601f191660200182016040528015611540576020820181803683370190505b5090505b8415610ae457611555600183611a2d565b9150611562600a86611b7c565b61156d906030611a44565b60f81b81838151811061158257611582611b90565b60200101906001600160f81b031916908160001a9053506115a4600a86611b68565b9450611544565b8280546115b79061198e565b90600052602060002090601f0160209004810192826115d9576000855561161f565b82601f106115f257805160ff191683800117855561161f565b8280016001018555821561161f579182015b8281111561161f578251825591602001919060010190611604565b5061162b929150611665565b5090565b50805461163b9061198e565b6000825580601f1061164b575050565b601f0160209004906000526020600020908101906105d591905b5b8082111561162b5760008155600101611666565b6001600160e01b0319811681146105d557600080fd5b6000602082840312156116a257600080fd5b81356112a18161167a565b60005b838110156116c85781810151838201526020016116b0565b838111156108b65750506000910152565b600081518084526116f18160208601602086016116ad565b601f01601f19169290920160200192915050565b6020815260006112a160208301846116d9565b60006020828403121561172a57600080fd5b5035919050565b80356001600160a01b038116811461174857600080fd5b919050565b6000806040838503121561176057600080fd5b61176983611731565b946020939093013593505050565b60008060006060848603121561178c57600080fd5b61179584611731565b92506117a360208501611731565b9150604084013590509250925092565b6000602082840312156117c557600080fd5b6112a182611731565b634e487b7160e01b600052604160045260246000fd5b600067ffffffffffffffff808411156117ff576117ff6117ce565b604051601f8501601f19908116603f01168101908282118183101715611827576118276117ce565b8160405280935085815286868601111561184057600080fd5b858560208301376000602087830101525050509392505050565b60006020828403121561186c57600080fd5b813567ffffffffffffffff81111561188357600080fd5b8201601f8101841361189457600080fd5b610ae4848235602084016117e4565b600080604083850312156118b657600080fd5b6118bf83611731565b9150602083013580151581146118d457600080fd5b809150509250929050565b600080600080608085870312156118f557600080fd5b6118fe85611731565b935061190c60208601611731565b925060408501359150606085013567ffffffffffffffff81111561192f57600080fd5b8501601f8101871361194057600080fd5b61194f878235602084016117e4565b91505092959194509250565b6000806040838503121561196e57600080fd5b61197783611731565b915061198560208401611731565b90509250929050565b600181811c908216806119a257607f821691505b602082108114156119c357634e487b7160e01b600052602260045260246000fd5b50919050565b6020808252602e908201527f4552433732313a2063616c6c6572206973206e6f7420746f6b656e206f776e6560408201526d1c881b9bdc88185c1c1c9bdd995960921b606082015260800190565b634e487b7160e01b600052601160045260246000fd5b600082821015611a3f57611a3f611a17565b500390565b60008219821115611a5757611a57611a17565b500190565b60208082526032908201527f4552433732313a207472616e7366657220746f206e6f6e20455243373231526560408201527131b2b4bb32b91034b6b83632b6b2b73a32b960711b606082015260800190565b60008351611ac08184602088016116ad565b835190830190611ad48183602088016116ad565b01949350505050565b6001600160a01b0385811682528416602082015260408101839052608060608201819052600090611b10908301846116d9565b9695505050505050565b600060208284031215611b2c57600080fd5b81516112a18161167a565b6000600019821415611b4b57611b4b611a17565b5060010190565b634e487b7160e01b600052601260045260246000fd5b600082611b7757611b77611b52565b500490565b600082611b8b57611b8b611b52565b500690565b634e487b7160e01b600052603260045260246000fdfea2646970667358221220581c8e21b25d663caccc7b12d7517de03c518af5dd2b4940cb009dacbf78f34264736f6c634300080a0033",
  "devdoc": {
    "kind": "dev",
    "methods": {
      "approve(address,uint256)": {
        "details": "See {IERC721-approve}."
      },
      "balanceOf(address)": {
        "details": "See {IERC721-balanceOf}."
      },
      "getApproved(uint256)": {
        "details": "See {IERC721-getApproved}."
      },
      "isApprovedForAll(address,address)": {
        "details": "See {IERC721-isApprovedForAll}."
      },
      "name()": {
        "details": "See {IERC721Metadata-name}."
      },
      "owner()": {
        "details": "Returns the address of the current owner."
      },
      "ownerOf(uint256)": {
        "details": "See {IERC721-ownerOf}."
      },
      "renounceOwnership()": {
        "details": "Leaves the contract without owner. It will not be possible to call `onlyOwner` functions anymore. Can only be called by the current owner. NOTE: Renouncing ownership will leave the contract without an owner, thereby removing any functionality that is only available to the owner."
      },
      "safeTransferFrom(address,address,uint256)": {
        "details": "See {IERC721-safeTransferFrom}."
      },
      "safeTransferFrom(address,address,uint256,bytes)": {
        "details": "See {IERC721-safeTransferFrom}."
      },
      "setApprovalForAll(address,bool)": {
        "details": "See {IERC721-setApprovalForAll}."
      },
      "supportsInterface(bytes4)": {
        "details": "See {IERC165-supportsInterface}."
      },
      "symbol()": {
        "details": "See {IERC721Metadata-symbol}."
      },
      "transferFrom(address,address,uint256)": {
        "details": "See {IERC721-transferFrom}."
      },
      "transferOwnership(address)": {
        "details": "Transfers ownership of the contract to a new account (`newOwner`). Can only be called by the current owner."
      }
    },
    "version": 1
  },
  "userdoc": {
    "kind": "user",
    "methods": {},
    "version": 1
  },
  "storageLayout": {
    "storage": [
      {
        "astId": 265,
        "contract": "contracts/SupporterNFT.sol:SupporterNFT",
        "label": "_name",
        "offset": 0,
        "slot": "0",
        "type": "t_string_storage"
      },
      {
        "astId": 267,
        "contract": "contracts/SupporterNFT.sol:SupporterNFT",
        "label": "_symbol",
        "offset": 0,
        "slot": "1",
        "type": "t_string_storage"
      },
      {
        "astId": 271,
        "contract": "contracts/SupporterNFT.sol:SupporterNFT",
        "label": "_owners",
        "offset": 0,
        "slot": "2",
        "type": "t_mapping(t_uint256,t_address)"
      },
      {
        "astId": 275,
        "contract": "contracts/SupporterNFT.sol:SupporterNFT",
        "label": "_balances",
        "offset": 0,
        "slot": "3",
        "type": "t_mapping(t_address,t_uint256)"
      },
      {
        "astId": 279,
        "contract": "contracts/SupporterNFT.sol:SupporterNFT",
        "label": "_tokenApprovals",
        "offset": 0,
        "slot": "4",
        "type": "t_mapping(t_uint256,t_address)"
      },
      {
        "astId": 285,
        "contract": "contracts/SupporterNFT.sol:SupporterNFT",
        "label": "_operatorApprovals",
        "offset": 0,
        "slot": "5",
        "type": "t_mapping(t_address,t_mapping(t_address,t_bool))"
      },
      {
        "astId": 1253,
        "contract": "contracts/SupporterNFT.sol:SupporterNFT",
        "label": "_tokenURIs",
        "offset": 0,
        "slot": "6",
        "type": "t_mapping(t_uint256,t_string_storage)"
      },
      {
        "astId": 134,
        "contract": "contracts/SupporterNFT.sol:SupporterNFT",
        "label": "_owner",
        "offset": 0,
        "slot": "7",
        "type": "t_address"
      },
      {
        "astId": 2315,
        "contract": "contracts/SupporterNFT.sol:SupporterNFT",
        "label": "_tokenIdCounter",
        "offset": 0,
        "slot": "8",
        "type": "t_struct(Counter)1715_storage"
      },
      {
        "astId": 2317,
        "contract": "contracts/SupporterNFT.sol:SupporterNFT",
        "label": "supporterTokenURI",
        "offset": 0,
        "slot": "9",
        "type": "t_string_storage"
      }
    ],
    "types": {
      "t_address": {
        "encoding": "inplace",
        "label": "address",
        "numberOfBytes": "20"
      },
      "t_bool": {
        "encoding": "inplace",
        "label": "bool",
        "numberOfBytes": "1"
      },
      "t_mapping(t_address,t_bool)": {
        "encoding": "mapping",
        "key": "t_address",
        "label": "mapping(address => bool)",
        "numberOfBytes": "32",
        "value": "t_bool"
      },
      "t_mapping(t_address,t_mapping(t_address,t_bool))": {
        "encoding": "mapping",
        "key": "t_address",
        "label": "mapping(address => mapping(address => bool))",
        "numberOfBytes": "32",
        "value": "t_mapping(t_address,t_bool)"
      },
      "t_mapping(t_address,t_uint256)": {
        "encoding": "mapping",
        "key": "t_address",
        "label": "mapping(address => uint256)",
        "numberOfBytes": "32",
        "value": "t_uint256"
      },
      "t_mapping(t_uint256,t_address)": {
        "encoding": "mapping",
        "key": "t_uint256",
        "label": "mapping(uint256 => address)",
        "numberOfBytes": "32",
        "value": "t_address"
      },
      "t_mapping(t_uint256,t_string_storage)": {
        "encoding": "mapping",
        "key": "t_uint256",
        "label": "mapping(uint256 => string)",
        "numberOfBytes": "32",
        "value": "t_string_storage"
      },
      "t_string_storage": {
        "encoding": "bytes",
        "label": "string",
        "numberOfBytes": "32"
      },
      "t_struct(Counter)1715_storage": {
        "encoding": "inplace",
        "label": "struct Counters.Counter",
        "members": [
          {
            "astId": 1714,
            "contract": "contracts/SupporterNFT.sol:SupporterNFT",
            "label": "_value",
            "offset": 0,
            "slot": "0",
            "type": "t_uint256"
          }
        ],
        "numberOfBytes": "32"
      },
      "t_uint256": {
        "encoding": "inplace",
        "label": "uint256",
        "numberOfBytes": "32"
      }
    }
  }
}