{
  "address": "0x5FbDB2315678afecb367f032d93F642f64180aa3",
  "abi": [
    {
      "inputs": [],
      "stateMutability": "nonpayable",
      "type": "constructor"
    },
    {
      "anonymous": false,
      "inputs": [
        {
          "indexed": false,
          "internalType": "string",
          "name": "contentID",
          "type": "string"
        },
        {
          "indexed": false,
          "internalType": "string",
          "name": "contentURI",
          "type": "string"
        },
        {
          "indexed": false,
          "internalType": "uint256",
          "name": "timestamp",
          "type": "uint256"
        }
      ],
      "name": "ArchiveAdded",
      "type": "event"
    },
    {
      "inputs": [
        {
          "internalType": "string",
          "name": "contentID",
          "type": "string"
        },
        {
          "internalType": "string",
          "name": "contentURI",
          "type": "string"
        }
      ],
      "name": "addArchive",
      "outputs": [],
      "stateMutability": "nonpayable",
      "type": "function"
    },
    {
      "inputs": [
        {
          "internalType": "string",
          "name": "",
          "type": "string"
        }
      ],
      "name": "archiveAdded",
      "outputs": [
        {
          "internalType": "bool",
          "name": "",
          "type": "bool"
        }
      ],
      "stateMutability": "view",
      "type": "function"
    }
  ],
  "transactionHash": "0xe2a412cf06d478f9d83bc69c877a0746cbfec77baa49b7937b3a4794357742e8",
  "args": [],
  "numDeployments": 1,
  "solcInputHash": "3fa1b6edbfcd30f800fc8e51d16af9c7",
  "bytecode": "0x608060405234801561001057600080fd5b506105bb806100206000396000f3fe608060405234801561001057600080fd5b50600436106100365760003560e01c806314eb47601461003b578063cc82cf8714610057575b600080fd5b610055600480360381019061005091906101ef565b610087565b005b610071600480360381019061006c91906103b1565b610140565b60405161007e9190610415565b60405180910390f35b600015156000858560405161009d929190610460565b908152602001604051809103902060009054906101000a900460ff161515146100fb576040517f08c379a00000000000000000000000000000000000000000000000000000000081526004016100f2906104d6565b60405180910390fd5b7f1ce3f7d23a377fc2cc622f3ab11fee64bbd7bd453ab8271046c6d1e85e9e91a8848484844260405161013295949392919061053c565b60405180910390a150505050565b6000818051602081018201805184825260208301602085012081835280955050505050506000915054906101000a900460ff1681565b6000604051905090565b600080fd5b600080fd5b600080fd5b600080fd5b600080fd5b60008083601f8401126101af576101ae61018a565b5b8235905067ffffffffffffffff8111156101cc576101cb61018f565b5b6020830191508360018202830111156101e8576101e7610194565b5b9250929050565b6000806000806040858703121561020957610208610180565b5b600085013567ffffffffffffffff81111561022757610226610185565b5b61023387828801610199565b9450945050602085013567ffffffffffffffff81111561025657610255610185565b5b61026287828801610199565b925092505092959194509250565b600080fd5b6000601f19601f8301169050919050565b7f4e487b7100000000000000000000000000000000000000000000000000000000600052604160045260246000fd5b6102be82610275565b810181811067ffffffffffffffff821117156102dd576102dc610286565b5b80604052505050565b60006102f0610176565b90506102fc82826102b5565b919050565b600067ffffffffffffffff82111561031c5761031b610286565b5b61032582610275565b9050602081019050919050565b82818337600083830152505050565b600061035461034f84610301565b6102e6565b9050828152602081018484840111156103705761036f610270565b5b61037b848285610332565b509392505050565b600082601f8301126103985761039761018a565b5b81356103a8848260208601610341565b91505092915050565b6000602082840312156103c7576103c6610180565b5b600082013567ffffffffffffffff8111156103e5576103e4610185565b5b6103f184828501610383565b91505092915050565b60008115159050919050565b61040f816103fa565b82525050565b600060208201905061042a6000830184610406565b92915050565b600081905092915050565b60006104478385610430565b9350610454838584610332565b82840190509392505050565b600061046d82848661043b565b91508190509392505050565b600082825260208201905092915050565b7f4172636869766520616c72656164792065786973747300000000000000000000600082015250565b60006104c0601683610479565b91506104cb8261048a565b602082019050919050565b600060208201905081810360008301526104ef816104b3565b9050919050565b60006105028385610479565b935061050f838584610332565b61051883610275565b840190509392505050565b6000819050919050565b61053681610523565b82525050565b600060608201905081810360008301526105578187896104f6565b9050818103602083015261056c8185876104f6565b905061057b604083018461052d565b969550505050505056fea2646970667358221220f8f2bb7804a70dde14bb3f172d056082229356090706d5ddaf2394cb88a946d464736f6c634300080a0033",
  "devdoc": {
    "kind": "dev",
    "methods": {},
    "version": 1
  },
  "userdoc": {
    "kind": "user",
    "methods": {},
    "version": 1
  },
  "storageLayout": {
    "storage": [
      {
        "astId": 13,
        "contract": "contracts/DArchive.sol:DArchive",
        "label": "archiveAdded",
        "offset": 0,
        "slot": "0",
        "type": "t_mapping(t_string_memory_ptr,t_bool)"
      }
    ],
    "types": {
      "t_bool": {
        "encoding": "inplace",
        "label": "bool",
        "numberOfBytes": "1"
      },
      "t_mapping(t_string_memory_ptr,t_bool)": {
        "encoding": "mapping",
        "key": "t_string_memory_ptr",
        "label": "mapping(string => bool)",
        "numberOfBytes": "32",
        "value": "t_bool"
      },
      "t_string_memory_ptr": {
        "encoding": "bytes",
        "label": "string",
        "numberOfBytes": "32"
      }
    }
  }
}