{
  "address": "0x5FbDB2315678afecb367f032d93F642f64180aa3",
  "abi": [
    {
      "inputs": [],
      "stateMutability": "nonpayable",
      "type": "constructor"
    },
    {
      "anonymous": false,
      "inputs": [
        {
          "indexed": false,
          "internalType": "string",
          "name": "contentID",
          "type": "string"
        },
        {
          "indexed": false,
          "internalType": "string",
          "name": "contentURI",
          "type": "string"
        }
      ],
      "name": "ArchiveAdded",
      "type": "event"
    },
    {
      "inputs": [
        {
          "internalType": "string",
          "name": "contentID",
          "type": "string"
        },
        {
          "internalType": "string",
          "name": "contentURI",
          "type": "string"
        }
      ],
      "name": "addArchive",
      "outputs": [],
      "stateMutability": "nonpayable",
      "type": "function"
    },
    {
      "inputs": [
        {
          "internalType": "string",
          "name": "",
          "type": "string"
        }
      ],
      "name": "archiveAdded",
      "outputs": [
        {
          "internalType": "bool",
          "name": "",
          "type": "bool"
        }
      ],
      "stateMutability": "view",
      "type": "function"
    }
  ],
  "transactionHash": "0x84ce3a2022f2ab0ccaff0af5f7e175c1f753c359fa079eadc97dd278f24da67e",
  "args": [],
  "numDeployments": 1,
  "solcInputHash": "648173ab64f4bbca6d084c7ee9ee21d8",
  "bytecode": "0x608060405234801561001057600080fd5b50610592806100206000396000f3fe608060405234801561001057600080fd5b50600436106100365760003560e01c806314eb47601461003b578063cc82cf8714610057575b600080fd5b610055600480360381019061005091906101ed565b610087565b005b610071600480360381019061006c91906103af565b61013e565b60405161007e9190610413565b60405180910390f35b600015156000858560405161009d92919061045e565b908152602001604051809103902060009054906101000a900460ff161515146100fb576040517f08c379a00000000000000000000000000000000000000000000000000000000081526004016100f2906104d4565b60405180910390fd5b7f8b4a35a54a59b27d50f4f8f50caf1ace80f51dded29d458e1ec6785cf18dbd71848484846040516101309493929190610521565b60405180910390a150505050565b6000818051602081018201805184825260208301602085012081835280955050505050506000915054906101000a900460ff1681565b6000604051905090565b600080fd5b600080fd5b600080fd5b600080fd5b600080fd5b60008083601f8401126101ad576101ac610188565b5b8235905067ffffffffffffffff8111156101ca576101c961018d565b5b6020830191508360018202830111156101e6576101e5610192565b5b9250929050565b600080600080604085870312156102075761020661017e565b5b600085013567ffffffffffffffff81111561022557610224610183565b5b61023187828801610197565b9450945050602085013567ffffffffffffffff81111561025457610253610183565b5b61026087828801610197565b925092505092959194509250565b600080fd5b6000601f19601f8301169050919050565b7f4e487b7100000000000000000000000000000000000000000000000000000000600052604160045260246000fd5b6102bc82610273565b810181811067ffffffffffffffff821117156102db576102da610284565b5b80604052505050565b60006102ee610174565b90506102fa82826102b3565b919050565b600067ffffffffffffffff82111561031a57610319610284565b5b61032382610273565b9050602081019050919050565b82818337600083830152505050565b600061035261034d846102ff565b6102e4565b90508281526020810184848401111561036e5761036d61026e565b5b610379848285610330565b509392505050565b600082601f83011261039657610395610188565b5b81356103a684826020860161033f565b91505092915050565b6000602082840312156103c5576103c461017e565b5b600082013567ffffffffffffffff8111156103e3576103e2610183565b5b6103ef84828501610381565b91505092915050565b60008115159050919050565b61040d816103f8565b82525050565b60006020820190506104286000830184610404565b92915050565b600081905092915050565b6000610445838561042e565b9350610452838584610330565b82840190509392505050565b600061046b828486610439565b91508190509392505050565b600082825260208201905092915050565b7f4172636869766520616c72656164792065786973747300000000000000000000600082015250565b60006104be601683610477565b91506104c982610488565b602082019050919050565b600060208201905081810360008301526104ed816104b1565b9050919050565b60006105008385610477565b935061050d838584610330565b61051683610273565b840190509392505050565b6000604082019050818103600083015261053c8186886104f4565b905081810360208301526105518184866104f4565b90509594505050505056fea264697066735822122081c046fc5338cb77a35a744d37a7f1dee3020ba52da18a574c745dcacd73f5b364736f6c634300080a0033",
  "devdoc": {
    "kind": "dev",
    "methods": {},
    "version": 1
  },
  "userdoc": {
    "kind": "user",
    "methods": {},
    "version": 1
  },
  "storageLayout": {
    "storage": [
      {
        "astId": 11,
        "contract": "contracts/DArchive.sol:DArchive",
        "label": "archiveAdded",
        "offset": 0,
        "slot": "0",
        "type": "t_mapping(t_string_memory_ptr,t_bool)"
      }
    ],
    "types": {
      "t_bool": {
        "encoding": "inplace",
        "label": "bool",
        "numberOfBytes": "1"
      },
      "t_mapping(t_string_memory_ptr,t_bool)": {
        "encoding": "mapping",
        "key": "t_string_memory_ptr",
        "label": "mapping(string => bool)",
        "numberOfBytes": "32",
        "value": "t_bool"
      },
      "t_string_memory_ptr": {
        "encoding": "bytes",
        "label": "string",
        "numberOfBytes": "32"
      }
    }
  }
}