{
  "address": "0x5FbDB2315678afecb367f032d93F642f64180aa3",
  "abi": [
    {
      "inputs": [],
      "stateMutability": "nonpayable",
      "type": "constructor"
    },
    {
      "anonymous": false,
      "inputs": [
        {
          "indexed": false,
          "internalType": "uint256",
          "name": "ID",
          "type": "uint256"
        },
        {
          "indexed": false,
          "internalType": "string",
          "name": "contentID",
          "type": "string"
        },
        {
          "indexed": false,
          "internalType": "string",
          "name": "contentURL",
          "type": "string"
        },
        {
          "indexed": false,
          "internalType": "string",
          "name": "title",
          "type": "string"
        },
        {
          "indexed": false,
          "internalType": "uint256",
          "name": "timestamp",
          "type": "uint256"
        }
      ],
      "name": "ArchiveAdded",
      "type": "event"
    },
    {
      "inputs": [
        {
          "internalType": "string",
          "name": "contentID",
          "type": "string"
        },
        {
          "internalType": "string",
          "name": "contentURL",
          "type": "string"
        },
        {
          "internalType": "string",
          "name": "title",
          "type": "string"
        }
      ],
      "name": "addArchive",
      "outputs": [],
      "stateMutability": "nonpayable",
      "type": "function"
    },
    {
      "inputs": [
        {
          "internalType": "string",
          "name": "",
          "type": "string"
        }
      ],
      "name": "archiveAdded",
      "outputs": [
        {
          "internalType": "bool",
          "name": "",
          "type": "bool"
        }
      ],
      "stateMutability": "view",
      "type": "function"
    },
    {
      "inputs": [],
      "name": "totalArchives",
      "outputs": [
        {
          "internalType": "uint256",
          "name": "_value",
          "type": "uint256"
        }
      ],
      "stateMutability": "view",
      "type": "function"
    }
  ],
  "transactionHash": "0x81fba8918dde8d98faaf02c6c8d6d14dce082e61fd3a13f2f224512d5e5ab9a0",
  "args": [],
  "numDeployments": 1,
  "solcInputHash": "0a97da4357f5c99421ce83847e085a47",
  "bytecode": "0x608060405234801561001057600080fd5b506103f9806100206000396000f3fe608060405234801561001057600080fd5b50600436106100415760003560e01c80638397ef2f14610046578063cc82cf871461005b578063fdf360e21461009e575b600080fd5b6100596100543660046101d1565b6100b6565b005b610089610069366004610281565b805160208183018101805160018252928201919093012091525460ff1681565b60405190151581526020015b60405180910390f35b6000546100a89081565b604051908152602001610095565b600186866040516100c8929190610332565b9081526040519081900360200190205460ff16156101255760405162461bcd60e51b81526020600482015260166024820152754172636869766520616c72656164792065786973747360501b604482015260640160405180910390fd5b610133600080546001019055565b7f35fe42b2a6441544ee9f57b47136d6899bbab09118779ea7f131d1c6698f72f661015d60005490565b8787878787874260405161017898979695949392919061036b565b60405180910390a1505050505050565b60008083601f84011261019a57600080fd5b50813567ffffffffffffffff8111156101b257600080fd5b6020830191508360208285010111156101ca57600080fd5b9250929050565b600080600080600080606087890312156101ea57600080fd5b863567ffffffffffffffff8082111561020257600080fd5b61020e8a838b01610188565b9098509650602089013591508082111561022757600080fd5b6102338a838b01610188565b9096509450604089013591508082111561024c57600080fd5b5061025989828a01610188565b979a9699509497509295939492505050565b634e487b7160e01b600052604160045260246000fd5b60006020828403121561029357600080fd5b813567ffffffffffffffff808211156102ab57600080fd5b818401915084601f8301126102bf57600080fd5b8135818111156102d1576102d161026b565b604051601f8201601f19908116603f011681019083821181831017156102f9576102f961026b565b8160405282815287602084870101111561031257600080fd5b826020860160208301376000928101602001929092525095945050505050565b8183823760009101908152919050565b81835281816020850137506000828201602090810191909152601f909101601f19169091010190565b88815260a06020820152600061038560a08301898b610342565b828103604084015261039881888a610342565b905082810360608401526103ad818688610342565b915050826080830152999850505050505050505056fea264697066735822122097cd3c18f173713f2ad9c2c38f1094fe5c64973184eb1507c319c8ef76ec5c9b64736f6c634300080a0033",
  "devdoc": {
    "kind": "dev",
    "methods": {},
    "version": 1
  },
  "userdoc": {
    "kind": "user",
    "methods": {},
    "version": 1
  },
  "storageLayout": {
    "storage": [
      {
        "astId": 95,
        "contract": "contracts/DArchive.sol:DArchive",
        "label": "totalArchives",
        "offset": 0,
        "slot": "0",
        "type": "t_struct(Counter)5_storage"
      },
      {
        "astId": 99,
        "contract": "contracts/DArchive.sol:DArchive",
        "label": "archiveAdded",
        "offset": 0,
        "slot": "1",
        "type": "t_mapping(t_string_memory_ptr,t_bool)"
      }
    ],
    "types": {
      "t_bool": {
        "encoding": "inplace",
        "label": "bool",
        "numberOfBytes": "1"
      },
      "t_mapping(t_string_memory_ptr,t_bool)": {
        "encoding": "mapping",
        "key": "t_string_memory_ptr",
        "label": "mapping(string => bool)",
        "numberOfBytes": "32",
        "value": "t_bool"
      },
      "t_string_memory_ptr": {
        "encoding": "bytes",
        "label": "string",
        "numberOfBytes": "32"
      },
      "t_struct(Counter)5_storage": {
        "encoding": "inplace",
        "label": "struct Counters.Counter",
        "members": [
          {
            "astId": 4,
            "contract": "contracts/DArchive.sol:DArchive",
            "label": "_value",
            "offset": 0,
            "slot": "0",
            "type": "t_uint256"
          }
        ],
        "numberOfBytes": "32"
      },
      "t_uint256": {
        "encoding": "inplace",
        "label": "uint256",
        "numberOfBytes": "32"
      }
    }
  }
}